{
  "contractName": "OAT",
  "abi": [
    {
      "inputs": [
        {
          "internalType": "address",
          "name": "",
          "type": "address"
        },
        {
          "internalType": "address",
          "name": "",
          "type": "address"
        }
      ],
      "name": "indexOwnerRating",
      "outputs": [
        {
          "internalType": "uint256",
          "name": "",
          "type": "uint256"
        }
      ],
      "stateMutability": "view",
      "type": "function"
    },
    {
      "inputs": [
        {
          "internalType": "address",
          "name": "",
          "type": "address"
        },
        {
          "internalType": "address",
          "name": "",
          "type": "address"
        }
      ],
      "name": "indexTenantRating",
      "outputs": [
        {
          "internalType": "uint256",
          "name": "",
          "type": "uint256"
        }
      ],
      "stateMutability": "view",
      "type": "function"
    },
    {
      "inputs": [
        {
          "internalType": "address",
          "name": "",
          "type": "address"
        },
        {
          "internalType": "address",
          "name": "",
          "type": "address"
        }
      ],
      "name": "rateAOwner",
      "outputs": [
        {
          "internalType": "uint256",
          "name": "",
          "type": "uint256"
        }
      ],
      "stateMutability": "view",
      "type": "function"
    },
    {
      "inputs": [
        {
          "internalType": "address",
          "name": "",
          "type": "address"
        },
        {
          "internalType": "address",
          "name": "",
          "type": "address"
        }
      ],
      "name": "rateATenant",
      "outputs": [
        {
          "internalType": "uint256",
          "name": "",
          "type": "uint256"
        }
      ],
      "stateMutability": "view",
      "type": "function"
    },
    {
      "inputs": [
        {
          "internalType": "string",
          "name": "name",
          "type": "string"
        },
        {
          "internalType": "string",
          "name": "password",
          "type": "string"
        },
        {
          "internalType": "string",
          "name": "addr",
          "type": "string"
        },
        {
          "internalType": "string",
          "name": "pnumber",
          "type": "string"
        },
        {
          "internalType": "address",
          "name": "wAddress",
          "type": "address"
        }
      ],
      "name": "setOwner",
      "outputs": [],
      "stateMutability": "nonpayable",
      "type": "function"
    },
    {
      "inputs": [
        {
          "internalType": "address",
          "name": "add",
          "type": "address"
        }
      ],
      "name": "getSecureOwnerDetails",
      "outputs": [
        {
          "components": [
            {
              "internalType": "string",
              "name": "name",
              "type": "string"
            },
            {
              "internalType": "address",
              "name": "Addr",
              "type": "address"
            },
            {
              "internalType": "string",
              "name": "password",
              "type": "string"
            },
            {
              "internalType": "string",
              "name": "addres",
              "type": "string"
            },
            {
              "internalType": "string",
              "name": "pnumber",
              "type": "string"
            },
            {
              "internalType": "uint256[]",
              "name": "rating",
              "type": "uint256[]"
            },
            {
              "internalType": "address[]",
              "name": "tenantAddresses",
              "type": "address[]"
            }
          ],
          "internalType": "struct OAT.Owner",
          "name": "",
          "type": "tuple"
        }
      ],
      "stateMutability": "view",
      "type": "function"
    },
    {
      "inputs": [
        {
          "internalType": "string",
          "name": "name",
          "type": "string"
        },
        {
          "internalType": "string",
          "name": "phoneNo",
          "type": "string"
        },
        {
          "internalType": "address",
          "name": "add",
          "type": "address"
        },
        {
          "internalType": "string",
          "name": "password",
          "type": "string"
        }
      ],
      "name": "setTenant",
      "outputs": [],
      "stateMutability": "nonpayable",
      "type": "function"
    },
    {
      "inputs": [
        {
          "internalType": "address",
          "name": "add",
          "type": "address"
        }
      ],
      "name": "getSecureTenantDetails",
      "outputs": [
        {
          "components": [
            {
              "internalType": "address",
              "name": "add",
              "type": "address"
            },
            {
              "internalType": "string",
              "name": "name",
              "type": "string"
            },
            {
              "internalType": "string",
              "name": "password",
              "type": "string"
            },
            {
              "internalType": "string",
              "name": "pnumber",
              "type": "string"
            },
            {
              "internalType": "uint256[]",
              "name": "rating",
              "type": "uint256[]"
            },
            {
              "internalType": "address[]",
              "name": "OwnerAddresses",
              "type": "address[]"
            }
          ],
          "internalType": "struct OAT.tenant",
          "name": "",
          "type": "tuple"
        }
      ],
      "stateMutability": "view",
      "type": "function"
    },
    {
      "inputs": [
        {
          "internalType": "address",
          "name": "ownerAddr",
          "type": "address"
        },
        {
          "internalType": "address",
          "name": "tenantAddr",
          "type": "address"
        },
        {
          "internalType": "string",
          "name": "password",
          "type": "string"
        }
      ],
      "name": "GiveHouse",
      "outputs": [
        {
          "internalType": "string",
          "name": "",
          "type": "string"
        }
      ],
      "stateMutability": "nonpayable",
      "type": "function"
    },
    {
      "inputs": [
        {
          "internalType": "address",
          "name": "owner",
          "type": "address"
        },
        {
          "internalType": "address",
          "name": "tenant",
          "type": "address"
        },
        {
          "internalType": "uint256",
          "name": "rating",
          "type": "uint256"
        }
      ],
      "name": "rateOwner",
      "outputs": [],
      "stateMutability": "nonpayable",
      "type": "function"
    },
    {
      "inputs": [
        {
          "internalType": "address",
          "name": "tenant",
          "type": "address"
        },
        {
          "internalType": "address",
          "name": "owner",
          "type": "address"
        },
        {
          "internalType": "uint256",
          "name": "rating",
          "type": "uint256"
        }
      ],
      "name": "rateTenant",
      "outputs": [],
      "stateMutability": "nonpayable",
      "type": "function"
    }
  ],
  "bytecode": "0x608060405234801561001057600080fd5b5061357c806100206000396000f3fe608060405234801561001057600080fd5b50600436106100a95760003560e01c806393b4f7481161007157806393b4f74814610176578063a84c063914610192578063c253b541146101ae578063da07e64a146101de578063f75088051461020e578063fc9282661461023e576100a9565b80630226ec6a146100ae5780631c384593146100ca57806325a8b4b3146100fa5780633b7194311461012a5780637df7ecc114610146575b600080fd5b6100c860048036038101906100c3919061285e565b61026e565b005b6100e460048036038101906100df9190612919565b6107d8565b6040516100f19190612a10565b60405180910390f35b610114600480360381019061010f9190612a32565b610c1f565b6040516101219190612a8b565b60405180910390f35b610144600480360381019061013f9190612ad2565b610c44565b005b610160600480360381019061015b9190612a32565b61114a565b60405161016d9190612a8b565b60405180910390f35b610190600480360381019061018b9190612b25565b61116f565b005b6101ac60048036038101906101a79190612ad2565b61178f565b005b6101c860048036038101906101c39190612c10565b611c95565b6040516101d59190612ec2565b60405180910390f35b6101f860048036038101906101f39190612a32565b6120b5565b6040516102059190612a8b565b60405180910390f35b61022860048036038101906102239190612a32565b6120da565b6040516102359190612a8b565b60405180910390f35b61025860048036038101906102539190612c10565b6120ff565b6040516102659190612f89565b60405180910390f35b6000600260008473ffffffffffffffffffffffffffffffffffffffff1673ffffffffffffffffffffffffffffffffffffffff1681526020019081526020016000206040518060c00160405290816000820160009054906101000a900473ffffffffffffffffffffffffffffffffffffffff1673ffffffffffffffffffffffffffffffffffffffff1673ffffffffffffffffffffffffffffffffffffffff16815260200160018201805461032090612fda565b80601f016020809104026020016040519081016040528092919081815260200182805461034c90612fda565b80156103995780601f1061036e57610100808354040283529160200191610399565b820191906000526020600020905b81548152906001019060200180831161037c57829003601f168201915b505050505081526020016002820180546103b290612fda565b80601f01602080910402602001604051908101604052809291908181526020018280546103de90612fda565b801561042b5780601f106104005761010080835404028352916020019161042b565b820191906000526020600020905b81548152906001019060200180831161040e57829003601f168201915b5050505050815260200160038201805461044490612fda565b80601f016020809104026020016040519081016040528092919081815260200182805461047090612fda565b80156104bd5780601f10610492576101008083540402835291602001916104bd565b820191906000526020600020905b8154815290600101906020018083116104a057829003601f168201915b505050505081526020016004820180548060200260200160405190810160405280929190818152602001828054801561051557602002820191906000526020600020905b815481526020019060010190808311610501575b50505050508152602001600582018054806020026020016040519081016040528092919081815260200182805480156105a357602002820191906000526020600020905b8160009054906101000a900473ffffffffffffffffffffffffffffffffffffffff1673ffffffffffffffffffffffffffffffffffffffff1681526020019060010190808311610559575b505050505081525050905073__StringUtils___________________________6346bdca9a82602001516040518263ffffffff1660e01b81526004016105e9919061307c565b602060405180830381865af4158015610606573d6000803e3d6000fd5b505050506040513d601f19601f8201168201806040525081019061062a91906130e9565b15610796576060806040518060c001604052808673ffffffffffffffffffffffffffffffffffffffff16815260200188815260200185815260200187815260200182815260200183815250600260008773ffffffffffffffffffffffffffffffffffffffff1673ffffffffffffffffffffffffffffffffffffffff16815260200190815260200160002060008201518160000160006101000a81548173ffffffffffffffffffffffffffffffffffffffff021916908373ffffffffffffffffffffffffffffffffffffffff160217905550602082015181600101908051906020019061071792919061248d565b50604082015181600201908051906020019061073492919061248d565b50606082015181600301908051906020019061075192919061248d565b50608082015181600401908051906020019061076e929190612513565b5060a082015181600501908051906020019061078b929190612560565b5090505050506107d1565b6040517f08c379a00000000000000000000000000000000000000000000000000000000081526004016107c890613162565b60405180910390fd5b5050505050565b60608373__StringUtils___________________________6346bdca9a600160008473ffffffffffffffffffffffffffffffffffffffff1673ffffffffffffffffffffffffffffffffffffffff1681526020019081526020016000206000016040518263ffffffff1660e01b81526004016108539190613217565b602060405180830381865af4158015610870573d6000803e3d6000fd5b505050506040513d601f19601f8201168201806040525081019061089491906130e9565b610bdc578373__StringUtils___________________________6346bdca9a600260008473ffffffffffffffffffffffffffffffffffffffff1673ffffffffffffffffffffffffffffffffffffffff1681526020019081526020016000206001016040518263ffffffff1660e01b81526004016109119190613217565b602060405180830381865af415801561092e573d6000803e3d6000fd5b505050506040513d601f19601f8201168201806040525081019061095291906130e9565b610b9b5773__StringUtils___________________________6346bdca9a600160008973ffffffffffffffffffffffffffffffffffffffff1673ffffffffffffffffffffffffffffffffffffffff168152602001908152602001600020600201866040518363ffffffff1660e01b81526004016109d092919061324c565b602060405180830381865af41580156109ed573d6000803e3d6000fd5b505050506040513d601f19601f82011682018060405250810190610a1191906130e9565b610a50576040517f08c379a0000000000000000000000000000000000000000000000000000000008152600401610a47906132cf565b60405180910390fd5b600160008773ffffffffffffffffffffffffffffffffffffffff1673ffffffffffffffffffffffffffffffffffffffff168152602001908152602001600020600601859080600181540180825580915050600190039060005260206000200160009091909190916101000a81548173ffffffffffffffffffffffffffffffffffffffff021916908373ffffffffffffffffffffffffffffffffffffffff160217905550600260008673ffffffffffffffffffffffffffffffffffffffff1673ffffffffffffffffffffffffffffffffffffffff168152602001908152602001600020600501869080600181540180825580915050600190039060005260206000200160009091909190916101000a81548173ffffffffffffffffffffffffffffffffffffffff021916908373ffffffffffffffffffffffffffffffffffffffff160217905550610bd6565b6040517f08c379a0000000000000000000000000000000000000000000000000000000008152600401610bcd9061333b565b60405180910390fd5b50610c17565b6040517f08c379a0000000000000000000000000000000000000000000000000000000008152600401610c0e9061333b565b60405180910390fd5b509392505050565b6003602052816000526040600020602052806000526040600020600091509150505481565b6000805b600260008673ffffffffffffffffffffffffffffffffffffffff1673ffffffffffffffffffffffffffffffffffffffff16815260200190815260200160002060050180549050811015610d5f57600260008673ffffffffffffffffffffffffffffffffffffffff1673ffffffffffffffffffffffffffffffffffffffff1681526020019081526020016000206005018181548110610ce957610ce861335b565b5b9060005260206000200160009054906101000a900473ffffffffffffffffffffffffffffffffffffffff1673ffffffffffffffffffffffffffffffffffffffff168473ffffffffffffffffffffffffffffffffffffffff161415610d4c57600191505b8080610d57906133b9565b915050610c48565b506001811415611109576000600560008573ffffffffffffffffffffffffffffffffffffffff1673ffffffffffffffffffffffffffffffffffffffff16815260200190815260200160002060008673ffffffffffffffffffffffffffffffffffffffff1673ffffffffffffffffffffffffffffffffffffffff168152602001908152602001600020541415610fa357600260008473ffffffffffffffffffffffffffffffffffffffff1673ffffffffffffffffffffffffffffffffffffffff16815260200190815260200160002060040180549050600660008673ffffffffffffffffffffffffffffffffffffffff1673ffffffffffffffffffffffffffffffffffffffff16815260200190815260200160002060008573ffffffffffffffffffffffffffffffffffffffff1673ffffffffffffffffffffffffffffffffffffffff16815260200190815260200160002081905550600260008573ffffffffffffffffffffffffffffffffffffffff1673ffffffffffffffffffffffffffffffffffffffff16815260200190815260200160002060040182908060018154018082558091505060019003906000526020600020016000909190919091505581600560008573ffffffffffffffffffffffffffffffffffffffff1673ffffffffffffffffffffffffffffffffffffffff16815260200190815260200160002060008673ffffffffffffffffffffffffffffffffffffffff1673ffffffffffffffffffffffffffffffffffffffff16815260200190815260200160002081905550611104565b81600260008673ffffffffffffffffffffffffffffffffffffffff1673ffffffffffffffffffffffffffffffffffffffff168152602001908152602001600020600401600660008773ffffffffffffffffffffffffffffffffffffffff1673ffffffffffffffffffffffffffffffffffffffff16815260200190815260200160002060008673ffffffffffffffffffffffffffffffffffffffff1673ffffffffffffffffffffffffffffffffffffffff16815260200190815260200160002054815481106110745761107361335b565b5b906000526020600020018190555081600560008573ffffffffffffffffffffffffffffffffffffffff1673ffffffffffffffffffffffffffffffffffffffff16815260200190815260200160002060008673ffffffffffffffffffffffffffffffffffffffff1673ffffffffffffffffffffffffffffffffffffffff168152602001908152602001600020819055505b611144565b6040517f08c379a000000000000000000000000000000000000000000000000000000000815260040161113b9061344e565b60405180910390fd5b50505050565b6006602052816000526040600020602052806000526040600020600091509150505481565b6000600160008373ffffffffffffffffffffffffffffffffffffffff1673ffffffffffffffffffffffffffffffffffffffff1681526020019081526020016000206040518060e00160405290816000820180546111cb90612fda565b80601f01602080910402602001604051908101604052809291908181526020018280546111f790612fda565b80156112445780601f1061121957610100808354040283529160200191611244565b820191906000526020600020905b81548152906001019060200180831161122757829003601f168201915b505050505081526020016001820160009054906101000a900473ffffffffffffffffffffffffffffffffffffffff1673ffffffffffffffffffffffffffffffffffffffff1673ffffffffffffffffffffffffffffffffffffffff1681526020016002820180546112b390612fda565b80601f01602080910402602001604051908101604052809291908181526020018280546112df90612fda565b801561132c5780601f106113015761010080835404028352916020019161132c565b820191906000526020600020905b81548152906001019060200180831161130f57829003601f168201915b5050505050815260200160038201805461134590612fda565b80601f016020809104026020016040519081016040528092919081815260200182805461137190612fda565b80156113be5780601f10611393576101008083540402835291602001916113be565b820191906000526020600020905b8154815290600101906020018083116113a157829003601f168201915b505050505081526020016004820180546113d790612fda565b80601f016020809104026020016040519081016040528092919081815260200182805461140390612fda565b80156114505780601f1061142557610100808354040283529160200191611450565b820191906000526020600020905b81548152906001019060200180831161143357829003601f168201915b50505050508152602001600582018054806020026020016040519081016040528092919081815260200182805480156114a857602002820191906000526020600020905b815481526020019060010190808311611494575b505050505081526020016006820180548060200260200160405190810160405280929190818152602001828054801561153657602002820191906000526020600020905b8160009054906101000a900473ffffffffffffffffffffffffffffffffffffffff1673ffffffffffffffffffffffffffffffffffffffff16815260200190600101908083116114ec575b505050505081525050905073__StringUtils___________________________6346bdca9a82600001516040518263ffffffff1660e01b815260040161157c919061307c565b602060405180830381865af4158015611599573d6000803e3d6000fd5b505050506040513d601f19601f820116820180604052508101906115bd91906130e9565b1561174c576060806040518060e001604052808981526020018573ffffffffffffffffffffffffffffffffffffffff16815260200188815260200187815260200186815260200182815260200183815250600160008673ffffffffffffffffffffffffffffffffffffffff1673ffffffffffffffffffffffffffffffffffffffff168152602001908152602001600020600082015181600001908051906020019061166992919061248d565b5060208201518160010160006101000a81548173ffffffffffffffffffffffffffffffffffffffff021916908373ffffffffffffffffffffffffffffffffffffffff16021790555060408201518160020190805190602001906116cd92919061248d565b5060608201518160030190805190602001906116ea92919061248d565b50608082015181600401908051906020019061170792919061248d565b5060a0820151816005019080519060200190611724929190612513565b5060c0820151816006019080519060200190611741929190612560565b509050505050611787565b6040517f08c379a000000000000000000000000000000000000000000000000000000000815260040161177e906134ba565b60405180910390fd5b505050505050565b6000805b600160008673ffffffffffffffffffffffffffffffffffffffff1673ffffffffffffffffffffffffffffffffffffffff168152602001908152602001600020600601805490508110156118aa57600160008673ffffffffffffffffffffffffffffffffffffffff1673ffffffffffffffffffffffffffffffffffffffff16815260200190815260200160002060060181815481106118345761183361335b565b5b9060005260206000200160009054906101000a900473ffffffffffffffffffffffffffffffffffffffff1673ffffffffffffffffffffffffffffffffffffffff168473ffffffffffffffffffffffffffffffffffffffff16141561189757600191505b80806118a2906133b9565b915050611793565b506001811415611c54576000600360008573ffffffffffffffffffffffffffffffffffffffff1673ffffffffffffffffffffffffffffffffffffffff16815260200190815260200160002060008673ffffffffffffffffffffffffffffffffffffffff1673ffffffffffffffffffffffffffffffffffffffff168152602001908152602001600020541415611aee57600160008573ffffffffffffffffffffffffffffffffffffffff1673ffffffffffffffffffffffffffffffffffffffff16815260200190815260200160002060050180549050600460008673ffffffffffffffffffffffffffffffffffffffff1673ffffffffffffffffffffffffffffffffffffffff16815260200190815260200160002060008573ffffffffffffffffffffffffffffffffffffffff1673ffffffffffffffffffffffffffffffffffffffff16815260200190815260200160002081905550600160008573ffffffffffffffffffffffffffffffffffffffff1673ffffffffffffffffffffffffffffffffffffffff16815260200190815260200160002060050182908060018154018082558091505060019003906000526020600020016000909190919091505581600360008573ffffffffffffffffffffffffffffffffffffffff1673ffffffffffffffffffffffffffffffffffffffff16815260200190815260200160002060008673ffffffffffffffffffffffffffffffffffffffff1673ffffffffffffffffffffffffffffffffffffffff16815260200190815260200160002081905550611c4f565b81600160008673ffffffffffffffffffffffffffffffffffffffff1673ffffffffffffffffffffffffffffffffffffffff168152602001908152602001600020600501600660008773ffffffffffffffffffffffffffffffffffffffff1673ffffffffffffffffffffffffffffffffffffffff16815260200190815260200160002060008673ffffffffffffffffffffffffffffffffffffffff1673ffffffffffffffffffffffffffffffffffffffff1681526020019081526020016000205481548110611bbf57611bbe61335b565b5b906000526020600020018190555081600360008573ffffffffffffffffffffffffffffffffffffffff1673ffffffffffffffffffffffffffffffffffffffff16815260200190815260200160002060008673ffffffffffffffffffffffffffffffffffffffff1673ffffffffffffffffffffffffffffffffffffffff168152602001908152602001600020819055505b611c8f565b6040517f08c379a0000000000000000000000000000000000000000000000000000000008152600401611c8690613526565b60405180910390fd5b50505050565b611c9d6125ea565b6000600160008473ffffffffffffffffffffffffffffffffffffffff1673ffffffffffffffffffffffffffffffffffffffff1681526020019081526020016000206040518060e0016040529081600082018054611cf990612fda565b80601f0160208091040260200160405190810160405280929190818152602001828054611d2590612fda565b8015611d725780601f10611d4757610100808354040283529160200191611d72565b820191906000526020600020905b815481529060010190602001808311611d5557829003601f168201915b505050505081526020016001820160009054906101000a900473ffffffffffffffffffffffffffffffffffffffff1673ffffffffffffffffffffffffffffffffffffffff1673ffffffffffffffffffffffffffffffffffffffff168152602001600282018054611de190612fda565b80601f0160208091040260200160405190810160405280929190818152602001828054611e0d90612fda565b8015611e5a5780601f10611e2f57610100808354040283529160200191611e5a565b820191906000526020600020905b815481529060010190602001808311611e3d57829003601f168201915b50505050508152602001600382018054611e7390612fda565b80601f0160208091040260200160405190810160405280929190818152602001828054611e9f90612fda565b8015611eec5780601f10611ec157610100808354040283529160200191611eec565b820191906000526020600020905b815481529060010190602001808311611ecf57829003601f168201915b50505050508152602001600482018054611f0590612fda565b80601f0160208091040260200160405190810160405280929190818152602001828054611f3190612fda565b8015611f7e5780601f10611f5357610100808354040283529160200191611f7e565b820191906000526020600020905b815481529060010190602001808311611f6157829003601f168201915b5050505050815260200160058201805480602002602001604051908101604052809291908181526020018280548015611fd657602002820191906000526020600020905b815481526020019060010190808311611fc2575b505050505081526020016006820180548060200260200160405190810160405280929190818152602001828054801561206457602002820191906000526020600020905b8160009054906101000a900473ffffffffffffffffffffffffffffffffffffffff1673ffffffffffffffffffffffffffffffffffffffff168152602001906001019080831161201a575b50505050508152505090506120776125ea565b81600001518160000181905250816080015181608001819052508160c001518160c001819052508160a001518160a001819052508092505050919050565b6005602052816000526040600020602052806000526040600020600091509150505481565b6004602052816000526040600020602052806000526040600020600091509150505481565b61210761263d565b6000600260008473ffffffffffffffffffffffffffffffffffffffff1673ffffffffffffffffffffffffffffffffffffffff1681526020019081526020016000206040518060c00160405290816000820160009054906101000a900473ffffffffffffffffffffffffffffffffffffffff1673ffffffffffffffffffffffffffffffffffffffff1673ffffffffffffffffffffffffffffffffffffffff1681526020016001820180546121b990612fda565b80601f01602080910402602001604051908101604052809291908181526020018280546121e590612fda565b80156122325780601f1061220757610100808354040283529160200191612232565b820191906000526020600020905b81548152906001019060200180831161221557829003601f168201915b5050505050815260200160028201805461224b90612fda565b80601f016020809104026020016040519081016040528092919081815260200182805461227790612fda565b80156122c45780601f10612299576101008083540402835291602001916122c4565b820191906000526020600020905b8154815290600101906020018083116122a757829003601f168201915b505050505081526020016003820180546122dd90612fda565b80601f016020809104026020016040519081016040528092919081815260200182805461230990612fda565b80156123565780601f1061232b57610100808354040283529160200191612356565b820191906000526020600020905b81548152906001019060200180831161233957829003601f168201915b50505050508152602001600482018054806020026020016040519081016040528092919081815260200182805480156123ae57602002820191906000526020600020905b81548152602001906001019080831161239a575b505050505081526020016005820180548060200260200160405190810160405280929190818152602001828054801561243c57602002820191906000526020600020905b8160009054906101000a900473ffffffffffffffffffffffffffffffffffffffff1673ffffffffffffffffffffffffffffffffffffffff16815260200190600101908083116123f2575b505050505081525050905061244f61263d565b81602001518160200181905250816060015181606001819052508160a001518160a00181905250816080015181608001819052508092505050919050565b82805461249990612fda565b90600052602060002090601f0160209004810192826124bb5760008555612502565b82601f106124d457805160ff1916838001178555612502565b82800160010185558215612502579182015b828111156125015782518255916020019190600101906124e6565b5b50905061250f9190612689565b5090565b82805482825590600052602060002090810192821561254f579160200282015b8281111561254e578251825591602001919060010190612533565b5b50905061255c9190612689565b5090565b8280548282559060005260206000209081019282156125d9579160200282015b828111156125d85782518260006101000a81548173ffffffffffffffffffffffffffffffffffffffff021916908373ffffffffffffffffffffffffffffffffffffffff16021790555091602001919060010190612580565b5b5090506125e69190612689565b5090565b6040518060e0016040528060608152602001600073ffffffffffffffffffffffffffffffffffffffff16815260200160608152602001606081526020016060815260200160608152602001606081525090565b6040518060c00160405280600073ffffffffffffffffffffffffffffffffffffffff16815260200160608152602001606081526020016060815260200160608152602001606081525090565b5b808211156126a257600081600090555060010161268a565b5090565b6000604051905090565b600080fd5b600080fd5b600080fd5b600080fd5b6000601f19601f8301169050919050565b7f4e487b7100000000000000000000000000000000000000000000000000000000600052604160045260246000fd5b61270d826126c4565b810181811067ffffffffffffffff8211171561272c5761272b6126d5565b5b80604052505050565b600061273f6126a6565b905061274b8282612704565b919050565b600067ffffffffffffffff82111561276b5761276a6126d5565b5b612774826126c4565b9050602081019050919050565b82818337600083830152505050565b60006127a361279e84612750565b612735565b9050828152602081018484840111156127bf576127be6126bf565b5b6127ca848285612781565b509392505050565b600082601f8301126127e7576127e66126ba565b5b81356127f7848260208601612790565b91505092915050565b600073ffffffffffffffffffffffffffffffffffffffff82169050919050565b600061282b82612800565b9050919050565b61283b81612820565b811461284657600080fd5b50565b60008135905061285881612832565b92915050565b60008060008060808587031215612878576128776126b0565b5b600085013567ffffffffffffffff811115612896576128956126b5565b5b6128a2878288016127d2565b945050602085013567ffffffffffffffff8111156128c3576128c26126b5565b5b6128cf878288016127d2565b93505060406128e087828801612849565b925050606085013567ffffffffffffffff811115612901576129006126b5565b5b61290d878288016127d2565b91505092959194509250565b600080600060608486031215612932576129316126b0565b5b600061294086828701612849565b935050602061295186828701612849565b925050604084013567ffffffffffffffff811115612972576129716126b5565b5b61297e868287016127d2565b9150509250925092565b600081519050919050565b600082825260208201905092915050565b60005b838110156129c25780820151818401526020810190506129a7565b838111156129d1576000848401525b50505050565b60006129e282612988565b6129ec8185612993565b93506129fc8185602086016129a4565b612a05816126c4565b840191505092915050565b60006020820190508181036000830152612a2a81846129d7565b905092915050565b60008060408385031215612a4957612a486126b0565b5b6000612a5785828601612849565b9250506020612a6885828601612849565b9150509250929050565b6000819050919050565b612a8581612a72565b82525050565b6000602082019050612aa06000830184612a7c565b92915050565b612aaf81612a72565b8114612aba57600080fd5b50565b600081359050612acc81612aa6565b92915050565b600080600060608486031215612aeb57612aea6126b0565b5b6000612af986828701612849565b9350506020612b0a86828701612849565b9250506040612b1b86828701612abd565b9150509250925092565b600080600080600060a08688031215612b4157612b406126b0565b5b600086013567ffffffffffffffff811115612b5f57612b5e6126b5565b5b612b6b888289016127d2565b955050602086013567ffffffffffffffff811115612b8c57612b8b6126b5565b5b612b98888289016127d2565b945050604086013567ffffffffffffffff811115612bb957612bb86126b5565b5b612bc5888289016127d2565b935050606086013567ffffffffffffffff811115612be657612be56126b5565b5b612bf2888289016127d2565b9250506080612c0388828901612849565b9150509295509295909350565b600060208284031215612c2657612c256126b0565b5b6000612c3484828501612849565b91505092915050565b600082825260208201905092915050565b6000612c5982612988565b612c638185612c3d565b9350612c738185602086016129a4565b612c7c816126c4565b840191505092915050565b612c9081612820565b82525050565b600081519050919050565b600082825260208201905092915050565b6000819050602082019050919050565b612ccb81612a72565b82525050565b6000612cdd8383612cc2565b60208301905092915050565b6000602082019050919050565b6000612d0182612c96565b612d0b8185612ca1565b9350612d1683612cb2565b8060005b83811015612d47578151612d2e8882612cd1565b9750612d3983612ce9565b925050600181019050612d1a565b5085935050505092915050565b600081519050919050565b600082825260208201905092915050565b6000819050602082019050919050565b6000612d8c8383612c87565b60208301905092915050565b6000602082019050919050565b6000612db082612d54565b612dba8185612d5f565b9350612dc583612d70565b8060005b83811015612df6578151612ddd8882612d80565b9750612de883612d98565b925050600181019050612dc9565b5085935050505092915050565b600060e0830160008301518482036000860152612e208282612c4e565b9150506020830151612e356020860182612c87565b5060408301518482036040860152612e4d8282612c4e565b91505060608301518482036060860152612e678282612c4e565b91505060808301518482036080860152612e818282612c4e565b91505060a083015184820360a0860152612e9b8282612cf6565b91505060c083015184820360c0860152612eb58282612da5565b9150508091505092915050565b60006020820190508181036000830152612edc8184612e03565b905092915050565b600060c083016000830151612efc6000860182612c87565b5060208301518482036020860152612f148282612c4e565b91505060408301518482036040860152612f2e8282612c4e565b91505060608301518482036060860152612f488282612c4e565b91505060808301518482036080860152612f628282612cf6565b91505060a083015184820360a0860152612f7c8282612da5565b9150508091505092915050565b60006020820190508181036000830152612fa38184612ee4565b905092915050565b7f4e487b7100000000000000000000000000000000000000000000000000000000600052602260045260246000fd5b60006002820490506001821680612ff257607f821691505b6020821081141561300657613005612fab565b5b50919050565b600082825260208201905092915050565b600061302882612988565b613032818561300c565b93506130428185602086016129a4565b61304b816126c4565b840191505092915050565b50565b600061306660008361300c565b915061307182613056565b600082019050919050565b60006040820190508181036000830152613096818461301d565b905081810360208301526130a981613059565b905092915050565b60008115159050919050565b6130c6816130b1565b81146130d157600080fd5b50565b6000815190506130e3816130bd565b92915050565b6000602082840312156130ff576130fe6126b0565b5b600061310d848285016130d4565b91505092915050565b7f54656e616e7420416c7265616479204578697374730000000000000000000000600082015250565b600061314c601583612993565b915061315782613116565b602082019050919050565b6000602082019050818103600083015261317b8161313f565b9050919050565b60008190508160005260206000209050919050565b600081546131a481612fda565b6131ae818661300c565b945060018216600081146131c957600181146131db5761320e565b60ff198316865260208601935061320e565b6131e485613182565b60005b83811015613206578154818901526001820191506020810190506131e7565b808801955050505b50505092915050565b600060408201905081810360008301526132318184613197565b9050818103602083015261324481613059565b905092915050565b600060408201905081810360008301526132668185613197565b9050818103602083015261327a818461301d565b90509392505050565b7f4f776e65722077726f6e672070617373776f7264000000000000000000000000600082015250565b60006132b9601483612993565b91506132c482613283565b602082019050919050565b600060208201905081810360008301526132e8816132ac565b9050919050565b7f54656e616e74206973204e6f7420526567697374657265640000000000000000600082015250565b6000613325601883612993565b9150613330826132ef565b602082019050919050565b6000602082019050818103600083015261335481613318565b9050919050565b7f4e487b7100000000000000000000000000000000000000000000000000000000600052603260045260246000fd5b7f4e487b7100000000000000000000000000000000000000000000000000000000600052601160045260246000fd5b60006133c482612a72565b91507fffffffffffffffffffffffffffffffffffffffffffffffffffffffffffffffff8214156133f7576133f661338a565b5b600182019050919050565b7f496e76616c6964204f776e657221212100000000000000000000000000000000600082015250565b6000613438601083612993565b915061344382613402565b602082019050919050565b600060208201905081810360008301526134678161342b565b9050919050565b7f4f776e657220416c726561647920457869737473000000000000000000000000600082015250565b60006134a4601483612993565b91506134af8261346e565b602082019050919050565b600060208201905081810360008301526134d381613497565b9050919050565b7f496e76616c69642074656e616e74212121000000000000000000000000000000600082015250565b6000613510601183612993565b915061351b826134da565b602082019050919050565b6000602082019050818103600083015261353f81613503565b905091905056fea2646970667358221220734f80a11285371d40cd68e6945c93fae69a5eafaef4b7db73b291071843f00264736f6c634300080b0033",
  "immutableReferences": {},
  "source": "pragma solidity 0.8.11;\r\nimport './StringUtils.sol';\r\n\r\ncontract OAT {\r\n    \r\n    // mapping (address=>uint[]) public onwerrarting;\r\n    uint[] array;\r\n     struct Owner\r\n    {\r\n         string name;\r\n         address Addr;\r\n         string  password ;\r\n         string addres;\r\n         string pnumber;\r\n         uint[] rating;\r\n         address[] tenantAddresses;\r\n\r\n    }\r\n\r\n    mapping (address=>Owner) private  OwnerDetails;\r\n//    mapping(address=>mapping(address=>string)) public OwnerRating;\r\n   \r\n  \r\n\r\n   function setOwner(string memory name,string memory password,string memory addr, string memory pnumber, address wAddress) public{/// this method is used to set the owner details\r\n\r\n        Owner memory o1 = OwnerDetails[wAddress];\r\n        if (StringUtils.equal(o1.name,\"\"))\r\n        {\r\n            address[] memory add;\r\n            uint[] memory rating;\r\n           OwnerDetails[wAddress]=Owner(name,wAddress,password,addr,pnumber,rating,add);  \r\n        }\r\n        else\r\n        {\r\n            revert(\"Owner Already Exists\") ; \r\n        }\r\n\r\n\r\n    }\r\n\r\n  \r\n\r\n    function getSecureOwnerDetails(address add) public view returns (Owner memory)/////gives out secure details of owner to website(front-end) by excluding password data.\r\n    {\r\n        Owner memory o1  = OwnerDetails[add];\r\n        Owner memory o2;\r\n        o2.name = o1.name;\r\n        o2.pnumber = o1.pnumber;\r\n        o2.tenantAddresses=o1.tenantAddresses;\r\n        o2.rating=o1.rating;\r\n        return o2;\r\n    }\r\n\r\n    struct tenant\r\n    {\r\n         address add;\r\n         string name;\r\n         string password;\r\n         string pnumber;\r\n         uint[] rating;\r\n         address [] OwnerAddresses;\r\n      \r\n    }\r\n\r\n    mapping (address=>tenant)private TenantDetails;\r\n    //  mapping(address=>mapping(address=>string)) public TenantRating;\r\n\r\n     function setTenant(string memory name, string memory phoneNo, address add,string memory password) public/// used to set tenant details.\r\n    {\r\n        tenant memory t1 = TenantDetails[add];\r\n        if (StringUtils.equal(t1.name,\"\"))\r\n        {\r\n            address[] memory addr;\r\n            uint[] memory rating;\r\n        TenantDetails[add]=  tenant(add,name,password,phoneNo,rating,addr);\r\n        \r\n            \r\n        }\r\n        else\r\n        {\r\n            revert(\"Tenant Already Exists\") ;\r\n        }\r\n\r\n         \r\n    }\r\n\r\nfunction getSecureTenantDetails(address add) public view returns(tenant memory)/////this method will provide details of a tenant excluding the password for frontend purpose.\r\n    {\r\n        tenant memory t1 = TenantDetails[add];\r\n        tenant memory  t2;\r\n        t2.name = t1.name;\r\n        t2.pnumber = t1.pnumber;\r\n        t2.OwnerAddresses=t1.OwnerAddresses;\r\n        t2.rating=t1.rating;\r\n        return t2;\r\n    }\r\n\r\nmodifier checkOwner(address oAddr){\r\n     if(!StringUtils.equal(OwnerDetails[oAddr].name,\"\")){\r\n        _;\r\n    }else{\r\n        revert(\"Tenant is Not Registered\");\r\n    }\r\n\r\n}\r\nmodifier checkTenant(address tAddr){\r\n    if(!StringUtils.equal(TenantDetails[tAddr].name,\"\")){\r\n        _;\r\n    }else{\r\n        revert(\"Tenant is Not Registered\");\r\n    }\r\n\r\n}\r\n\r\n    \r\n    function GiveHouse(address ownerAddr , address tenantAddr, string memory password)public checkOwner(ownerAddr) checkTenant(tenantAddr) returns(string memory){\r\n      require(StringUtils.equal(OwnerDetails[ownerAddr].password, password),\"Owner wrong password\");\r\n    OwnerDetails[ownerAddr].tenantAddresses.push(tenantAddr);\r\n    TenantDetails[tenantAddr].OwnerAddresses.push(ownerAddr);\r\n\r\n\r\n}\r\nmapping(address=>mapping(address=>uint)) public rateAOwner;\r\nmapping(address=>mapping(address=>uint))public indexTenantRating;\r\n\r\nfunction rateOwner(address owner, address tenant, uint rating)public {\r\n    uint k=0;\r\n    for(uint i=0;i<OwnerDetails[owner].tenantAddresses.length;i++){\r\n        if(tenant==OwnerDetails[owner].tenantAddresses[i]){\r\n            k=1;\r\n        }\r\n    }\r\n    if(k==1){\r\n        if(rateAOwner[tenant][owner]==0){\r\n        indexTenantRating[owner][tenant]=OwnerDetails[owner].rating.length;\r\n        OwnerDetails[owner].rating.push(rating);\r\n        rateAOwner[tenant][owner]=rating;\r\n\r\n    }else{\r\n        OwnerDetails[owner].rating[indexOwnerRating[owner][tenant]]=rating;\r\n        rateAOwner[tenant][owner]=rating;\r\n    }\r\n\r\n    }else{\r\n        revert(\"Invalid tenant!!!\");\r\n    }\r\n    \r\n    \r\n\r\n}\r\nmapping(address=>mapping(address=>uint))public rateATenant;\r\nmapping(address=>mapping(address=>uint))public indexOwnerRating;\r\n\r\nfunction rateTenant(address tenant, address owner, uint rating) public {\r\nuint k=0;\r\nfor(uint i=0;i<TenantDetails[tenant].OwnerAddresses.length;i++){\r\n    if(owner==TenantDetails[tenant].OwnerAddresses[i]){\r\n        k=1;\r\n    }\r\n}\r\nif(k==1){\r\n\r\nif(rateATenant[owner][tenant]==0){\r\n        indexOwnerRating[tenant][owner]=TenantDetails[owner].rating.length;\r\n        TenantDetails[tenant].rating.push(rating);\r\n         rateATenant[owner][tenant]=rating;\r\n\r\n    }else{\r\n        TenantDetails[tenant].rating[indexOwnerRating[tenant][owner]]=rating;\r\n        rateATenant[owner][tenant]=rating;\r\n    }\r\n\r\n}else{\r\n    revert(\"Invalid Owner!!!\");\r\n}\r\n       \r\n}\r\n\r\n\r\n\r\n\r\n\r\n}\r\n\r\n",
  "sourcePath": "C:\\Users\\ACER\\Desktop\\oat\\contracts\\OAT.sol",
  "compiler": {
    "name": "solc",
    "version": "0.8.11+commit.d7f03943.Emscripten.clang"
  },
  "schemaVersion": "3.4.4",
  "updatedAt": "2022-07-17T08:57:04.195Z",
  "devdoc": {
    "kind": "dev",
    "methods": {},
    "version": 1
  },
  "userdoc": {
    "kind": "user",
    "methods": {},
    "version": 1
  }
}